:020000040800F2
:100000000090002051260008990A00089D0A000867
:1000100000000000000000000000000000000000E0
:10002000000000000000000000000000A10A00081D
:100030000000000000000000A50A0008A90A00084E
:10004000A126000800000000A1260008A126000843
:10005000A1260008A1260008A1260008A126000864
:1000600000000000A1260008A1260008A126000823
:10007000A1260008A1260008A12600080000000013
:10008000A1260008A1260008A1260008A126000834
:10009000A1260008A1260008A1260008A126000824
:1000A000A1260008A1260008A1260008A126000814
:0800B000A1260008A1260008AA
:1000B80010B5064C2378002B07D1054B002B02D036
:1000C800044800E000BF0123237010BD9C000020FD
:1000D8000000000038370008084B10B5002B03D08B
:1000E8000749084800E000BF07480368002B00D113
:1000F80010BD064B002BFBD09847F9E70000000025
:10010800A0000020383700089C00002000000000F4
:10011800002243088B4274D303098B425FD3030A3E
:100128008B4244D3030B8B4228D3030C8B420DD351
:10013800FF22090212BA030C8B4202D312120902DF
:1001480065D0030B8B4219D300E0090AC30B8B421D
:1001580001D3CB03C01A5241830B8B4201D38B03CB
:10016800C01A5241430B8B4201D34B03C01A524170
:10017800030B8B4201D30B03C01A5241C30A8B42B3
:1001880001D3CB02C01A5241830A8B4201D38B029E
:10019800C01A5241430A8B4201D34B02C01A524142
:1001A800030A8B4201D30B02C01A5241CDD2C309B4
:1001B8008B4201D3CB01C01A524183098B4201D330
:1001C8008B01C01A524143098B4201D34B01C01A1B
:1001D800524103098B4201D30B01C01A5241C30893
:1001E8008B4201D3CB00C01A524183088B4201D302
:1001F8008B00C01A524143088B4201D34B00C01AEE
:100208005241411A00D20146524110467047FFE759
:1002180001B5002000F0F0F802BDC0460029F7D073
:1002280076E7704703460B437FD4002243088B428E
:1002380074D303098B425FD3030A8B4244D3030B65
:100248008B4228D3030C8B420DD3FF22090212BA2A
:10025800030C8B4202D31212090265D0030B8B42A6
:1002680019D300E0090AC30B8B4201D3CB03C01A90
:100278005241830B8B4201D38B03C01A5241430B6B
:100288008B4201D34B03C01A5241030B8B4201D35B
:100298000B03C01A5241C30A8B4201D3CB02C01AC6
:1002A8005241830A8B4201D38B02C01A5241430A3E
:1002B8008B4201D34B02C01A5241030A8B4201D32D
:1002C8000B02C01A5241CDD2C3098B4201D3CB01D4
:1002D800C01A524183098B4201D38B01C01A524183
:1002E80043098B4201D34B01C01A524103098B4287
:1002F80001D30B01C01A5241C3088B4201D3CB0072
:10030800C01A524183088B4201D38B00C01A524154
:1003180043088B4201D34B00C01A5241411A00D204
:1003280001465241104670475DE0CA0F00D049426D
:10033800031000D34042534000229C4603098B42DD
:100348002DD3030A8B4212D3FC22890112BA030A65
:100358008B420CD3890192118B4208D389019211E7
:100368008B4204D389013AD0921100E08909C3096C
:100378008B4201D3CB01C01A524183098B4201D36E
:100388008B01C01A524143098B4201D34B01C01A59
:10039800524103098B4201D30B01C01A5241C308D1
:1003A8008B4201D3CB00C01A524183088B4201D340
:1003B8008B00C01A5241D9D243088B4201D34B005B
:1003C800C01A5241411A00D20146634652415B109D
:1003D800104601D34042002B00D54942704763467E
:1003E8005B1000D3404201B5002000F005F802BDC3
:1003F8000029F8D016E770477047C04600B587B0A7
:1004080017236B4418700122524202920232019261
:100418000093012300227821024800F0ADFD07B0C7
:1004280000BDC046CC04002000B585B001235B4266
:10043800029389B201910090023340227821024848
:1004480000F09AFD05B000BDCC04002010B50A23C9
:1004580003227821024800F061FE4342584110BD52
:10046800CC040020002307E0002801D1002100E08F
:10047800FF21034AD1540133024A9342F4D9704709
:10048800B8000020FF03000010B5002412E020008F
:100498005038C0B2FFF7B2FF0020FFF7AFFF1020BF
:1004A800FFF7ACFFE3010548C0188021FFF7BCFF48
:1004B8000134E4B2072CEAD910BDC046B8000020C8
:1004C80043B2002B1ADB3F2918D8012A0BD1CB08DD
:1004D800DB01181807231940063B8B40084A115CBA
:1004E8000B4313540AE0CB08DB0118180723194003
:1004F80001228A4002490B5C93430B547047C04663
:10050800B8000020F0B55F4656464D464446F0B464
:1005180083B081460091019298460300203BDBB2EC
:100528005E2B42D8274B1B886A4616789B19802B6E
:100538003DDC244B5B885278924693465344402BCB
:1005480037DC002529E04B46203B5A4653435B19CC
:100558005B00019A9F5A00241CE03B00A3401B0447
:100568000AD5184B188859884919C9B20019C0B258
:100578004246FFF7A5FF0CE0124B188859884246FF
:1005880053425A41D2B24919C9B20019C0B2FFF751
:1005980097FF0134B442E0D301355545D3D3094B15
:1005A8001A8896191E80484604E0002002E00020C0
:1005B80000E0002003B03CBC90469946A246AB46FA
:1005C800F0BDC046B804002030B583B004000091E7
:1005D80001921D0009E02B000099019AFFF792FF94
:1005E80003002078834203D1013420780028F2D117
:1005F80003B030BD014B188059807047B804002003
:1006080010B504008120FFF7F9FE2000FFF7F6FE81
:1006180010BDC04610B5002804D00122054B5A7100
:10062800AF2003E00022034B5A71AE20FFF7E6FE2D
:1006380010BDC046B804002010B5642001F096FC37
:10064800FFF704FF00285DD00020FFF7E3FF20201C
:10065800FFF7D4FE0020FFF7D1FEB020FFF7CEFE53
:10066800C820FFF7CBFE0020FFF7C8FE1020FFF7D9
:10067800C5FE4020FFF7C2FEFF20FFF7C1FFA12003
:10068800FFF7BCFEA620FFF7B9FEA820FFF7B6FECD
:100698003F20FFF7B3FEA420FFF7B0FED320FFF7FB
:1006A800ADFE0020FFF7AAFED520FFF7A7FEF02039
:1006B800FFF7A4FED920FFF7A1FE2220FFF79EFE38
:1006C800DA20FFF79BFE1220FFF798FEDB20FFF7EA
:1006D80095FE2020FFF792FE8D20FFF78FFE142055
:1006E800FFF78CFE0120FFF795FF0020FFF7BAFE09
:1006F800FFF7CAFE044B00221A805A8001321A7191
:10070800002000E0012010BDB8040020F0B589B039
:100718001422002103A801F0E7FF214B596B0420A4
:10072800014359635A6B02400092009A5A6B0125A3
:100738002A435A635A6B2A400192019A5A6B022142
:100748000A435A635B6B0B400293029B8024A4010B
:10075800144E01222100300001F024FBA027FF05E0
:1007680000220121380001F01DFB039404950024A8
:100778000594069403A9300001F05EFA03950495E8
:100788000594069403A9380001F056FAC023039390
:100798000494059403A9300001F04EFA09B0F0BDA5
:1007A800001002400008005010B501F0D9FB040009
:1007B8000121A020C00501F0FBFA642001F0D6FB5E
:1007C80001F0CEFB001B034B9842F1D972B601F041
:1007D80053FB10BDB80B000010B51248124B036054
:1007E800124B4360002383600122C26003614361AE
:1007F8008361C361036200F05BFB002801D0FFF74F
:10080800D3FF0021074800F049FD002801D0FFF779
:10081800CBFF0021034800F06DFD002801D0FFF751
:10082800C3FF10BDCC04002000540040BC7D7010F4
:1008380010B51748174B0360E1235B0243600023A0
:100848008360C36003610C2242618361C3610362F8
:100858004362836201F02EFE002801D0FFF7A4FF57
:1008680000210B4801F0A4FE002801D0FFF79CFFEF
:100878000021074801F0C0FE002801D0FFF794FFCF
:10088800034801F075FE002801D0FFF78DFF10BD69
:10089800200500200038014000B593B03422002123
:1008A80005A801F021FF1022002101A801F01CFF7A
:1008B8008020800001F084FA0223059380225200F0
:1008C80008920022099240210A910C930D930E92EE
:1008D80006330F9380239B02109380239B0511936B
:1008E80005A800F031FD002801D0FFF75DFF0723C0
:1008F8000193053B0293002303930493022101A86B
:1009080000F0ECFF002801D0FFF74EFF13B000BD48
:1009180010B501F005FBFFF7BFFFFFF7F7FEFFF784
:100928005BFFFFF785FF00F06DF800F08BF8FCE740
:1009380010B5140092B201235B42024801F012FD87
:10094800200010BD2005002010B50F4801F064FFFD
:10095800012411E061000A2302220C4800F0DEFBAA
:10096800002804D121000A4801F0C6FE02E02E202A
:1009780001F0DCFE0134E4B263B2002BEADA054888
:1009880001F04AFF10BDC046F4440008CC04002022
:100998000C4500081845000810B5024801F03CFF56
:1009A80010BDC0461C45000810B50020FFF75AFDD1
:1009B80000210220FFF71EFE0E4C01232168626809
:1009C8000D48FFF701FE12210220FFF713FE012355
:1009D800216862680948FFF7F7FD24210220FFF724
:1009E80009FE0123216862680548FFF7EDFDFFF75E
:1009F8004BFD10BD00000020200000200800002052
:100A08001400002010B50A4A0A490B4801F074FE88
:100A1800FFF712FE002805D0084801F0FDFEFFF799
:100A280093FF01E0FFF7C0FF054801F0F5FE10BD98
:100A3800304500083C450008444500085445000876
:100A48006845000870B501F08BFA050001F088FAD6
:100A5800040001F085FA401B0B4B984204D901F0C1
:100A68007FFA0500FFF798FF01F07AFA001B064BA2
:100A78009842EED901F074FA0400802189010348F4
:100A880001F096F9E5E7C046E703000000080050CA
:100A9800FEE7C046FEE7C0467047C0467047C046FE
:100AA80010B501F051FA10BD00B583B00B4B196CAD
:100AB8000120014319641A6C02400092009AD96B14
:100AC800802252051143D963DB6B1A400192019BC6
:100AD800C020C00001F05CFA03B000BD0010024065
:100AE80010B58EB004001422002109A801F0FCFD05
:100AF8001C22002102A801F0F7FD2268164B9A4239
:100B080028D12023029302A800F0D0FF002801D0AA
:100B1800FFF74AFE114C626B02210A436263636B62
:100B28000B400093009BC0239B00099312230A9358
:100B380000230B930C9306330D9309A9084801F081
:100B48007BF8E26B80239B031A43E263E26B13405A
:100B58000193019B0EB010BD0054004000100240EC
:100B68000004005010B58EB004001422002109A81A
:100B780001F0BAFD1C22002102A801F0B5FD22688F
:100B8800164B9A4228D10123029302A800F08EFF47
:100B9800002801D0FFF708FE114B196C8022D20102
:100BA80011431964196C0A400092009A596B01228A
:100BB800114359635B6B13400193019BC023DB0016
:100BC800099302230A9300230B930C930D9209A90E
:100BD800A020C00501F030F80EB010BD003801406B
:100BE8000010024003689A69920701D500229A62B0
:100BF80003689A69D20703D4996901220A439A6162
:100C08007047C04630B51C00039D8B059B0D120430
:100C1800134323432B435B005B0804686268690D38
:100C28008020C0000140034801438A4313436360A6
:100C380030BDC046FF63FF03F0B5474680B40400EB
:100C48000D00170003689A69D20645D51022DA61AB
:100C58000023984600262FE06B1C2DD001F080F968
:100C6800C01B854201D3002D26D121684A68802304
:100C7800DB0113404222A25CD2B28869000417D576
:100C8800002B15D1202A13D04B688022D2011343A0
:100C98004B6001F065F907000AE001F061F9C01B3B
:100CA800192805D9202342461A439046012603E015
:100CB80023689B699B06F0D523689A69920601D43C
:100CC800002EC9D0002E01D12022DA610425434626
:100CD8002B431D00012601E00025002622689369A8
:100CE800D90504D501210D43FF31D16101265A05EB
:100CF80006D50822154322688021C900D161012642
:100D08009B0506D502231D43236880229200DA61E1
:100D18000126002E12D02000FFF764FF22685168D8
:100D2800084B0B405360636C1D43656420224123CC
:100D3800E25400232232A354023AA354300004BCE4
:100D48009046F0BD00E800FE70B504000D001600E6
:100D58001CE0320029002000FFF76EFF00281BD19D
:100D68006B1C13D001F0FCF8801B854201D3002DC9
:100D78000CD1636C2022134363644123E2540023A3
:100D88002232A354023AA354012006E023689B6947
:100D98009B07DED5002000E0012070BDF8B50500F6
:100DA8000F0016001C0016E0631C14D001F0D8F8E0
:100DB800069BC01A844201D3002C0CD16B6C2022F4
:100DC80013436B644123EA5400232232AB54023AA2
:100DD800AB54012009E02B689B693A009A43130041
:100DE8005A425341B342DFD00020F8BD70B582B0FB
:100DF800040015001E00DAB2184B009380235B0430
:100E0800FFF700FF079A06992000FFF79DFF0028CB
:100E18001ED1012E03D12368EDB29D620CE0236838
:100E28002A0A9A62079A06992000FFF78DFF002880
:100E380010D12368EDB29D62079B0093069B0022A8
:100E480080212000FFF7AAFF002804D0012002E03B
:100E5800012000E0012002B070BDC04600200080E3
:100E680070B505000C0016001AE0320021002800B9
:100E7800FFF7E2FE002819D101F072F8801B8442C6
:100E880001D3002C0CD16B6C202213436B644123DB
:100E9800EA5400232232AB54023AAB54012006E054
:100EA8002B689B699B06E0D5002000E0012070BDFF
:100EB80010B5041E57D04123C35C002B04D1002277
:100EC8004033C254FFF70CFE24224123E254226827
:100ED800136801218B4313602268244B61680B401F
:100EE800136122689168224B0B409360E368012BE1
:100EF80006D1226880231B02A1680B43936005E09A
:100F0800226884231B02A1680B439360E368022BC9
:100F180003D12368802212015A6022685368154958
:100F28000B4353602268D168114B0B40D360216892
:100F3800226963691A43A3691B021343CB602268C1
:100F4800E369216A0B4313602268116801230B438C
:100F580013600023636420214122A15423630132DA
:100F6800A354002000E0012010BDC046FFFFFFF0A1
:100F7800FF7FFFFF00800002F0B587B007000C007C
:100F8800039204930CAB40CB1D884123C35C202BF8
:100F980000D0B3E0002E01D0002D04D180239B00A7
:100FA8007B640120B5E04023C35C012B00D1A7E09E
:100FB80001224023C25400F0D3FF0590009019236A
:100FC8000122802109023800FFF7E8FE002800D03E
:100FD80098E021224123FA541F320133FA540023A6
:100FE8007B647E627D857B63059B01930E9B0093EA
:100FF800049B039A21003800FFF7F8FE002804D06C
:1010080000224023FA54012083E07B8D9BB2FF2B02
:101018000BD9FF233B850023009380235B04FF2229
:1010280021003800FFF7EEFD0BE07A8D92B23A8589
:10103800D2B20023009380239B0421003800FFF7DD
:10104800E1FD059A0E993800FFF77EFE00285BD176
:101058003B687A6A12789A627B6A01337B627B8D7D
:10106800013B9BB27B853B8D013B9BB23B857A8DD7
:1010780092B2002A27D0002B25D1059B00930E9B06
:10108800002280213800FFF789FE00283ED17B8DA1
:101098009BB2FF2B0BD9FF233B85002300938023B2
:1010A8005B04FF2221003800FFF7ACFD0BE07A8DCE
:1010B80092B23A85D2B20023009380239B04210088
:1010C8003800FFF79FFD7B8D9BB2002BB9D1059AA5
:1010D8000E993800FFF7C4FE002819D13B6820227A
:1010E800DA6139684C680C4B23404B604123FA5451
:1010F80000232232BB54023ABB540AE0022008E023
:10110800022006E0012004E0012002E0012000E0C6
:10111800012007B0F0BDC04600E800FEF0B587B07A
:1011280006000C0003921F00002305934133C35CA3
:10113800202B00D0A2E003689B691B0400D59FE028
:101148004023C35C012B00D19CE001224023C25400
:1011580023320133C254002343643268F368012BFD
:1011680004D1A3059B0D4C490B4304E0A3059B0D3B
:10117800A02189010B43536000F0F2FE050032689C
:10118800936920210B40591E8B41D9B292691023D3
:101198001A40531E9A41D3B220E07B1C11D000F0B4
:1011A800DFFE401B874201D3002F0AD120234122B2
:1011B800B354726C1343736400224023F254012029
:1011C80067E03268936920210B40591E8B41D9B2E0
:1011D800926910231A40531E9A41D3B20B43DCD0B4
:1011E80033689B69DB0611D400953B00002220215F
:1011F8003000FFF7D3FD002846D132682023D361A1
:101208004122B35400222033F25442E000953B00BF
:10121800002220213000FFF7C1FD002836D13368B5
:101228001022DA6133681032DA61059B039A93421F
:1012380011D1326853688021C9010B43536000956E
:101248003B00002220213000FFF7A8FD00281FD115
:1012580033682022DA61059B01330593059B039AC5
:101268009A4200D979E720224123F254736C134340
:10127800736400224023F25401200AE0022008E0AF
:10128800022006E0022004E0012002E0012000E044
:10129800012007B0F0BDC04600200002F0B5412390
:1012A800C35C202B20D12033C35C012B1ED04024EB
:1012B80001230355412524224255066832689A4382
:1012C8003260066837680A4A3A403260026816682F
:1012D80031431160026811680B43136020234355A2
:1012E80000230355002002E0022000E00220F0BDA8
:1012F800FFEFFFFFF0B54123C35C202B1ED1203345
:10130800C35C012B1CD04024012303554125242212
:101318004255066832689A43326006683768094A57
:101328003A40090211433160026811680B431360A7
:101338002023435500230355002002E0022000E04B
:101348000220F0BDFFF0FFFF70B582B0041E00D18F
:1013580029E20368DB0759D5BD4A936838210B4059
:10136800D26835390A40102B01D1032A01D0082B45
:1013780007D1B74B1B689B0348D56368002B45D141
:1013880013E2636880225202934206D1B04A13687E
:10139800802149020B43136018E0A022D202934235
:1013A8000BD1AB4B1A688021C9020A431A601A682C
:1013B800802149020A431A6008E0A54B1968A54A2A
:1013C8000A401A601968A44A0A401A606368002B28
:1013D8000ED000F0C5FD050005E000F0C1FD401B82
:1013E800642800D9E3E19A4B1B689B03F5D50DE00F
:1013F80000F0B6FD050005E000F0B2FD401B6428D2
:1014080000D9D6E1924B1B689B03F5D423689B0750
:101418006DD58F4A936838210B40D26835390A4018
:10142800102B01D1022A01D0002B27D1884A12683B
:10143800520503D5E268002A00D1BCE1844841681E
:10144800864A0A40616909020A434260002B0ED1AC
:101458000168834A0A4021690A4302600368DB0A7B
:10146800072213407F4ADA4013007F4A13607F4BFC
:10147800186800F02BFD002839D09EE1E368002BA6
:1014880022D0734B1968764A0A4021690A431A60C8
:101498001A68802149000A431A6000F061FD0500BE
:1014A80005E000F05DFD401B022800D987E1684B8C
:1014B8001B685B05F5D566494A68684B1340626945
:1014C800120213434B6012E0614A1168684B0B40EB
:1014D800136000F045FD050005E000F041FD401BEC
:1014E800022800D96DE15A4B1B685B05F5D42368C7
:1014F8001B0737D5564B9B6838221340182B07D14A
:10150800534B1B6E9B072DD5A369002B2AD15AE19B
:10151800A369002B13D04E4A116E01230B431366A7
:1015280000F01EFD050005E000F01AFD401B022832
:1015380000D94AE1464B1B6E9B07F5D512E0444A99
:10154800136E01218B43136600F00AFD050005E0C8
:1015580000F006FD401B022800D938E13C4B1B6E09
:101568009B07F5D423685B0700D499E0384B9B6848
:1015780038221340202B09D1354BDB6D9B0700D453
:101588008EE0A368002B00D08AE022E1304BDB6BB1
:10159800DB0001D4012300E00023002B0BD02C4AF0
:1015A800D16B80235B051943D163D26B1340019340
:1015B800019B012500E000252E4B1B68DB0513D499
:1015C8002C4A1368802149000B43136000F0C8FCC3
:1015D800060005E000F0C4FC801B022800D9FAE0F0
:1015E800244B1B68DB05F5D5A368012B04D1184AE9
:1015F800D16D0B43D36514E0052B09D1144BD96D7C
:1016080004220A43DA65D96D01220A43DA6508E043
:101618000F4BDA6D01218A43DA65DA6D03318A43AB
:10162800DA65A368002B0FD000F09AFC060006E0EC
:1016380000F096FC801B104B984200D9CDE0044B7B
:10164800DB6D9B07F4D524E000F08AFC06001CE063
:1016580000100240FFFFFEFFFFFFFBFFFF80FFFFC0
:10166800FFC7FFFF0024F400340000202C000020F6
:10167800FFFEFFFF007000408813000000F070FCC0
:10168800801B624B984200D9A9E0614BDB6D9B0738
:10169800F4D4012D04D15E4AD16B5E4B0B40D36369
:1016A800E369002B00D19CE0594A926838210A402E
:1016B800102A56D0022B3BD1554A1168564B0B4085
:1016C800136000F04DFC050005E000F049FC401BEC
:1016D800022800D987E04E4B1B689B01F5D44C4B80
:1016E800D8684E4A1040226A616A0A43A16A090210
:1016F8001143E26A0A43216B0A430243DA601A681B
:10170800802149040A431A60DA68802149050A439E
:10171800DA6000F025FC040004E000F021FC001B66
:10172800022862D83A4B1B689B01F6D500206BE073
:10173800374A1168384B0B40136000F011FC040065
:1017480004E000F00DFC001B022850D8304B1B6849
:101758009B01F6D42E4AD168314B0B40D360002050
:1017680052E0012B45D02A4BDA6803231340216A43
:101778008B4240D170231340616A8B423DD1FE21D8
:10178800C9011140A36A1B02994238D1F8239B036F
:101798001340E16A8B4234D1520F5207236B9A42AD
:1017A80031D0012030E001202EE001202CE0032080
:1017B8002AE0032028E0012026E0012024E003207D
:1017C80022E0032020E001201EE003201CE003208B
:1017D8001AE0012018E0032016E0032014E003209B
:1017E80012E0002010E003200EE003200CE00320AC
:1017F8000AE0012008E0012006E0012004E00120C1
:1018080002E0012000E0002002B070BD8813000053
:1018180000100240FFFFFFEFFFFFFFFE8C80C11F9B
:10182800FCFFFEEF10B52A4B9B6838221A420AD1FA
:10183800274B1B68DB0A313A1340012199402548A0
:10184800FEF766FC43E0224B9B6838221340082BC6
:1018580037D01F4B9B681340102B24D11C4AD368E8
:1018680003210B40D1680909072211400131032BDC
:1018780009D11948FEF74CFC154BDB681B0A7F227F
:101888001340584308E01348FEF742FC104BDB684E
:101898001B0A7F22134058430D4BD968490F013169
:1018A800FEF736FC13E00A4B9B6838221340202BC6
:1018B80009D0074B9B681340182B07D1FA20C001A9
:1018C80005E0054803E08020000200E0002010BD8C
:1018D800001002400024F40000127A0070B50400E1
:1018E8000D00002800D1A4E05B4B1B6807221340C1
:1018F8008B4216D2584A136807218B432B43136037
:1019080000F02EFB060006E000F02AFB801B534B7C
:10191800984200D98FE0504B1B68072213409D4224
:10192800F2D123689A070ED55B0705D54C4A936810
:10193800E021C9010B439360494A9168494B0B4028
:10194800A1680B4393602368DB0738D56368012BD4
:1019580004D1434A1268920319D46EE0022B04D1D1
:101968003F4A1268920112D469E0002B04D13C4A24
:10197800126852050BD464E0032B04D1384A126E66
:10198800920704D45FE0364AD26D92075DD5344998
:101998008A680720824313438B6000F0E1FA06004F
:1019A80005E000F0DDFA801B2C4B98424FD82C4BF9
:1019B8009B6838221A406368DB009A42F1D1264BB3
:1019C8001B68072213409D4215D2234A136807213A
:1019D8008B432B43136000F0C3FA060005E000F0C8
:1019E800BFFA801B1D4B984233D81B4B1B6807223C
:1019F80013409D42F3D123685B0706D518498A68CE
:101A0800194B1340E26813438B60FFF70BFF144B2D
:101A18009B681B0A0F2213409B00144A9B581F22E5
:101A28001340D840124B1860124B186800F04EFA59
:101A380010E001200EE003200CE001200AE0012064
:101A480008E0012006E0012004E0012002E0032074
:101A580000E0032070BDC04600200240881300004B
:101A680000100240FFF0FFFFFF8FFFFF9C450008BA
:101A7800340000202C000020014B18687047C04635
:101A88003400002010B5FFF7F7FF064B9A68E023F3
:101A9800DB0113409B0A044A9B581F221340D8407D
:101AA80010BDC04600100240DC450008F0B583B008
:101AB800040003689B0362D5574BDB6BDB000BD438
:101AC800554AD16B80235B051943D163D26B134010
:101AD8000193019B012600E00026504A13688021EB
:101AE80049000B43136000F03BFA050004E000F0E6
:101AF80037FA401B022805D8484B1B68DB05F6D58A
:101B0800002500E00325002D31D1434BDA6DC023B9
:101B18009B00134010D0A26993420DD03E4AD16D6C
:101B28003F4B0B40D16D802040020143D165D06D01
:101B38003C490140D165D365DB070FD500F010FAA9
:101B4800070005E000F00CFAC01B374B984204D898
:101B5800314BDB6D9B07F5D500E00325002D06D141
:101B68002D4AD16D2E4B0B40A1690B43D365012E35
:101B780006D1294AD16B2D4B0B40D36300E00025D9
:101B88002368DB0706D5244A536D03218B4361681C
:101B98000B43536523689B0706D51F4A536D0C21D9
:101BA8008B43A1680B43536523689B0606D51A4AE5
:101BB800516D1F4B0B40E1680B43536523685B0471
:101BC80011D5154A536D9B009B0861690B435365FA
:101BD8008023DB0562699A4205D10F4AD3688021C8
:101BE80049020B43D36023681B0511D50A4A516D7E
:101BF800104B0B4021690B43536522698023DB019D
:101C08009A4205D1044AD368802149020B43D36024
:101C1800280003B0F0BDC04600100240007000402C
:101C2800FFFCFFFFFFFFFEFF88130000FFFFFFEF31
:101C3800FFCFFFFFFF3FFFFFF0B50023A4E0012423
:101C48009C40224000D19EE003254E683540013D6E
:101C5800012D11D885685F000326BE40B543CE68C4
:101C6800BE40354385604668A6434C682509012473
:101C78002C409C403443446003244D682C40032C82
:101C880008D0C4685E000325B540AC438D68B540F4
:101C98002C43C46003244D682C40022C0ED1DC0870
:101CA8000834A400275807251D40AD000F26AE4074
:101CB800B7430E69AE403D003543255005685E00C8
:101CC80003242700B740BD434F683C40B4402C4331
:101CD8000460C024A4024D68254254D09C08250005
:101CE8001835AD002B4EAF5903251D40ED000F26CA
:101CF800AE40B743A026F605B0420AD0264EB04201
:101D080009D0264EB04208D0254EB04207D103264E
:101D180006E0002604E0012602E0022600E005268F
:101D2800AE4035003D431B4E1834A400A55135681C
:101D3800D44326002E404F68FF0201D515432E00DC
:101D4800144D2E606D682E0026404F68BF0201D5E5
:101D580015432E000F4D6E608426AD592E00264087
:101D68004F68BF0301D515432E000A4D8427EE5155
:101D78008026AD592C404E68F60301D52A4314003D
:101D88008022044DAC5001330A681400DC4000D0B6
:101D980055E7F0BD0018024000040050000800504C
:101DA800000C0050002A01D0816100E08162704778
:101DB80042690B0013401B0491431943816170472A
:101DC80010B5104A1168104B0B4003431360802371
:101DD8009B00984212D10D4B1B685A00D31858002B
:101DE8000B49FEF795F9013002E0002808D00138C8
:101DF800044B5B695B05F8D4002002E0002000E09A
:101E0800032010BD00700040FFF9FFFF34000020E0
:101E180040420F0070B5002811DB8208144DC03213
:101E28009200545903231840C000FF263300834012
:101E38009C438901314081402143515116E0C0B291
:101E48000F230340083B9B0806339B00094A94462E
:101E580063445A6803242040C000FC3425008540B0
:101E6800AA438901214081401143596070BDC04691
:101E780000E100E000ED00E0BFF34F8F034A044BA0
:101E8800DA60BFF34F8FC046FDE7C0460400FA058D
:101E980000ED00E001380A4B98420FD8094A50601B
:101EA80009490B6A1B021B0AC020000603430B6288
:101EB8000023936007331360002000E0012070477F
:101EC800FFFFFF0010E000E000ED00E010B50400A7
:101ED800104B1978002917D0FA208000FEF718F95E
:101EE80001000D4B1868FEF713F9FFF7D3FF002820
:101EF8000CD1032C0CD8002221000138FFF78AFFEF
:101F0800064B1C60002004E0012002E0012000E0F4
:101F1800012010BD30000020340000202C000020DB
:101F280010B5084A1368802149000B431360032049
:101F3800FFF7CCFF002803D1FEF7B6FD002000E034
:101F4800012010BD00200240034B1978034A136892
:101F5800CB1813607047C04630000020B40500203D
:101F6800014B18687047C046B405002070B50400DE
:101F7800FFF7F6FF0500631C02D0044B1B78E4183A
:101F8800FFF7EEFF401B8442FAD870BD30000020F6
:101F9800034A1168034B0B40184310607047C04652
:101FA80000000140FFF9FFFF70B504008368026973
:101FB800134342691343C1691943006803686E4AB1
:101FC80013400B430360226851686C4B0B40E16877
:101FD8000B435360A169236A194320688368684AE0
:101FE80013400B4383602268D36A0F218B43616AD5
:101FF8000B43D3622368634A934214D1624B5B6DEF
:1020080003221340012B08D0002B04D0022B2CD024
:10201800032B04D005E000232EE004232CE0082342
:102028002AE0102328E0594A934216D1564B5B6D9B
:102038000C221340042B0AD002D8002B05D00AE04A
:10204800082B14D00C2B04D005E0002314E0042343
:1020580012E0082310E010230EE04D4A934208D006
:102068004C4A934207D1002306E0022304E00223EE
:1020780002E0002300E0102380221202E16991426D
:1020880039D1022B08D002D8002B08D00FE0042B3E
:1020980009D0082B0ED00AE03F4800250DE0FFF7D5
:1020A800F1FC002509E0FFF7BDFB002505E0002055
:1020B800012502E0802000020025002852D0636A32
:1020C8005B00364A995AFEF723F8400063685B08BC
:1020D800C0186168FEF71CF80200103A304B9A42AB
:1020E8003DD883B20F2293434008083A1040184362
:1020F8002368D86036E0022B08D002D8002B08D01D
:102108000FE0042B09D0082B0ED00AE02248002546
:102118000DE0FFF7B7FC002509E0FFF783FB00257A
:1021280005E00020012502E08020000200250028AB
:1021380018D0636A5B00194A995AFDF7E9FF63688A
:102148005B08C0186168FDF7E3FF0200103A144B02
:102158009A4206D823680004000CD86002E00125E2
:1021680000E0012501236A22A352023AA352002368
:102178006367A367280070BDF369FFCFFFCFFFFF38
:10218800FFF4FF11003801400010024000440040F5
:1021980000480040004C00400024F400744500084A
:1021A800EFFF0000836ADB0706D5026851682C4BF5
:1021B8000B40C16A0B435360836A9B0706D50268CC
:1021C8005168284B0B40016B0B435360836A5B07D4
:1021D80006D502685168244B0B40416B0B43536092
:1021E800836A1B0706D502685168204B0B40816B38
:1021F8000B435360836ADB0606D5026891681C4B63
:102208000B40C16B0B439360836A9B0606D502683B
:102218009168184B0B40016C0B439360836A5B0613
:1022280012D502685168144B0B40416C0B43536044
:1022380080235B03426C9A4206D1026851680F4BB7
:102248000B40816C0B435360836A1B0606D50168FB
:102258004A680B4B1340C26C13434B607047C0462F
:10226800FFFFFDFFFFFFFEFFFFFFFBFFFF7FFFFFFD
:10227800FFEFFFFFFFDFFFFFFFFFEFFFFFFF9FFF06
:10228800FFFFF7FFF0B5474680B404000F001600C3
:102298009846069D57E06B1C55D0FFF761FE4346F4
:1022A800C01A854201D3002D20D1EFF310800121FF
:1022B80081F3108822681568294B2B40136080F33E
:1022C8001088EFF31080012383F310882268936845
:1022D8008B43936080F3108820238822A350043214
:1022E800A35000226433E254032036E023681A68BE
:1022F800520728D5DA69120525D5802212011A62FB
:10230800EFF31080012181F3108822681568144BBF
:102318002B40136080F31088EFF31080012383F3C0
:102328001088226893688B43936080F31088202379
:102338008822A3500432A3500432A35000226433ED
:10234800E254032009E02368DB693A009A4313004A
:102358005A425341B3429ED0002004BC9046F0BD7F
:102368005FFEFFFFF0B585B004000E0017001D00EA
:102378008823C358202B56D1002956D0002A56D07E
:1023880080235B0182689A4204D10369002B01D142
:10239800CB074ED400229023E2502132083BE25072
:1023A800FFF7DEFD03905423E7520233E752802300
:1023B8005B01A2689A4204D12369002B03D000274D
:1023C8001FE000271DE0370000261AE00095039B58
:1023D800002280212000FFF755FF00282BD1002E76
:1023E80006D122683B88DB05DB0D9362023703E0E8
:1023F800236832789A6201365622A35A013B9BB26F
:10240800A3525623E35A9BB2002BDFD10095039BBE
:10241800002240212000FFF735FF00280DD120229F
:102428008823E2500AE0022008E0012006E00120AB
:1024380004E0012002E0032000E0032005B0F0BD25
:1024480030B583B0040000229023C250FFF788FD06
:10245800050023681B681B070AD5154B009303006A
:102468000022802189032000FFF70CFF00281AD1E1
:1024780023681B685B070AD50D4B00932B000022CD
:102488008021C9032000FFF7FDFE00280DD120237D
:102498008822A3500432A3500023E3662367083A36
:1024A800A354002002E0032000E0032003B030BD65
:1024B800FFFFFF0110B5041E2ED08823C358002B40
:1024C80004D100228433C254FEF74CFB2422882313
:1024D800E2502268136801218B4313602000FFF744
:1024E80063FD012819D0A36A002B02D02000FFF752
:1024F80059FE22685168094B0B4053602268936863
:102508002A218B4393602268116801230B431360CF
:102518002000FFF795FF00E0012010BDFFB7FFFF87
:10252800F8B50400436E002B05D101336A228352AB
:10253800023A835216E003689D686D0E0722154023
:102548009B685B0F084FF85CC000084EF15CFDF714
:1025580069FE6A23E052785DC000715DFDF762FE96
:102568006823E052F8BDC0468C4500089445000831
:10257800F0B58423C35C012B15D0842401260655AD
:10258800882524234351026817681168B1431160F4
:10259800064B3B400022426601680B6020234351F2
:1025A8000255002000E00220F0BDC046FFFFFFDF1B
:1025B800F8B504008423C35C012B1BD084250120BB
:1025C800605588262423A35123681F681A6882430C
:1025D8001A6022689368DB00DB08194391602000C9
:1025E800FFF79EFF23681F602023A3510023635534
:1025F800002000E00220F8BDF8B504008423C35C85
:10260800012B1BD084250120605588262423A35143
:1026180023681F681A6882431A6022689068084B0A
:102628000340194391602000FFF77AFF23681F6079
:102638002023A35100236355002000E00220F8BDA9
:10264800FFFFFFF17047C0460D488546FFF7FAFFC8
:102658000C480D490D4A002302E0D458C4500433F5
:10266800C4188C42F9D30A4A0A4C002301E01360CB
:102678000432A242FBD300F011F8FEF749F9FEE755
:1026880000900020000000209C0000209C460008CC
:102698009C000020BC050020FEE700000E4B70B532
:1026A80000251E000D4CE41AA410A54204D0AB006E
:1026B800F35898470135F8E701F03AF8084B002538
:1026C8001E00084CE41AA410A54204D0AB00F3582D
:1026D80098470135F8E770BD94460008944600080D
:1026E800944600089846000803008218934202D0D6
:1026F80019700133FAE770470FB40B4B13B51C6818
:10270800002C05D0A369002B02D1200000F04EFA5E
:1027180005AB049AA1682000019300F013FC16BCD5
:1027280008BC04B01847C04698000020084B70B594
:102738001C680500002C05D0A369002B02D12000DD
:1027480000F034FA2900A268200000F0A7FE70BD4E
:102758009800002070B505000E00002804D0836999
:10276800002B01D100F022FAAB69AC68002B02D132
:10277800280000F01BFA254B9C4201D16C6808E048
:10278800234B9C4201D1AC6803E0224B9C4200D110
:10279800EC68A3891B0702D52369002B11D12100FE
:1027A800280000F099F800280BD0012040422BE0C7
:1027B800013B0136A360002B08DB23685A1C22600A
:1027C80019703178A3680029F2D10BE0A26993420D
:1027D80001DB0A29F1D12200280000F027F8431C68
:1027E800EFD1E2E7013BA360002B08DA22000A31AF
:1027F800280000F01BF8431CD7D00A2004E00A2068
:1028080023685A1C2260187070BDC0460046000834
:10281800204600084046000810B5034B0100186820
:10282800FFF798FF10BDC04698000020F8B50500D6
:102838000F001400002804D08369002B01D100F098
:10284800B5F9224B9C4201D16C6808E0204B9C42B0
:1028580001D1AC6803E01F4B9C4200D1EC68A3692E
:10286800A360A3891B070AD52369002B07D0236817
:102878002269FEB2981A636998420FDB08E02100CA
:10288800280000F029F80028F1D0012676421BE044
:102898002100280000F01CF90028F6D1A3680130B7
:1028A800013BA36023685A1C22601F706369984229
:1028B80004D0A389DB0707D50A2E05D121002800FB
:1028C80000F006F90028E0D13000F8BD0046000805
:1028D8002046000840460008364B70B51D680600C3
:1028E8000C00002D05D0AB69002B02D1280000F0A8
:1028F8005DF9314B9C4201D16C6808E02F4B9C423A
:1029080001D1AC6803E02E4B9C4200D1EC680C224C
:10291800A35E9AB2110723D4D10607D40922012055
:10292800326037321343A381404242E0530713D544
:10293800616B002908D023004433994202D030004B
:1029480000F02CFA002363632422A3899343A38114
:1029580000236360236923600822A3891343A381AA
:102968002369002B0BD1A0238022A1899B00920010
:102978000B40934203D02100300000F0D1F901232D
:10298800A289134005D00023A36063695B42A36159
:1029980003E0920700D46369A3600020236983429F
:1029A80007D10C22A35E1A0603D540221343A38144
:1029B800013870BD98000020004600082046000835
:1029C80040460008F7B58A8905000C0013075AD459
:1029D8004B68002B02DC0B6C002B19DDE76A002F1B
:1029E80016D000232E682B6080235B011A4001D08B
:1029F800606D14E00123216A2800B847431C0ED1FA
:102A08002B68002B0BD01D2B01D0162B02D12E606A
:102A180000205AE04022A3891343A38155E0A389EB
:102A28005B0706D56368C01A636B002B01D0236C63
:102A3800C01A00230200216A2800E76AB847A38960
:102A4800421C06D129681D293AD8204ACA40D20713
:102A580036D50022626022692260DB0405D5431C5A
:102A680002D12B68002B00D16065616B2E600029B4
:102A7800CED023004433994202D0280000F08EF9CA
:102A88000020606321E00F69002FC1D00B680F6040
:102A9800DB1B01930023920700D14B69A36003E07D
:102AA800019B3F181B1A0193019B002BB0DD019B72
:102AB8003A00216A2800A66AB0470028F0DCA389FA
:102AC800402201201343A3814042FEBD0100402063
:102AD8000B6970B505000C00002B01D100201CE02B
:102AE800002804D08369002B01D100F05FF80B4B5C
:102AF8009C4201D16C6808E0094B9C4201D1AC684A
:102B080003E0084B9C4200D1EC680C22A35E002B2A
:102B1800E4D021002800FFF755FF70BD00460008EB
:102B2800204600084046000810B5024900F0B0F8F9
:102B380010BDC046D92A0008002310B50400036060
:102B48004360836081814366C2810361436183611D
:102B5800190008225C30FFF7C7FD054B2462636249
:102B6800044BA362044BE362044B236310BDC046CD
:102B7800353500085D35000895350008C135000871
:102B880070B568254B1E5D430E002900743100F0B6
:102B980051F9041E08D000212A00016046600C305B
:102BA800A0606832FFF7A0FD200070BD836913B5EF
:102BB8000400002B28D18364C3640365134B144AB3
:102BC8001B6882620193984201D10123836120002E
:102BD80000F020F86060200000F01CF8A0602000E1
:102BE80000F018F80022E06004216068FFF7A4FFF5
:102BF80001220921A068FFF79FFF02221221E06845
:102C0800FFF79AFF0123A36113BDC046FC450008E6
:102C1800312B0008F8B51D4B06001D68AB69002B69
:102C280002D12800FFF7C2FF4835AC686B68013B4A
:102C380005D40C22A75E002F10D06834F7E72B6864
:102C4800002B01D02D68F0E704213000FFF798FF32
:102C580028600028F6D10C23336016E001232000F9
:102C68005B42E3810233A38167662760A7606760E0
:102C780027616761A7615C3008223900FFF734FDDE
:102C880020006763A763A764E764F8BDFC450008F4
:102C9800F7B504000700002601914834002C16D02F
:102CA8006368A5680093009B013B00930DD4AB8932
:102CB800012B08D90E22AB5E013304D0290038005D
:102CC800019B984706436835EDE72468E6E730003E
:102CD800FEBD000070B50E001D000E23C95E90B049
:102CE8001400002906DA00232B60B3891B060FD5D0
:102CF80040230FE001AA00F08BFC0028F3DBF0234F
:102D0800029A1B021340054A9B185A4253412B60F2
:102D18008023DB000020236010B070BD00E0FFFFBF
:102D2800F7B502268B8905000C00334210D101ABA0
:102D38006A46FFF7CFFF00990700280000F07AF8ED
:102D480000280CD10C22A35E9A0523D43343A38117
:102D58002300473323602361012363611AE0802243
:102D68000D4BAB62A38920601343A381009B2061B4
:102D78006361019B002B0AD00E23E15E280000F05E
:102D880059FC002803D00122A3891343A381A389F6
:102D98001F43A781F7BDC046312B000870B5050059
:102DA800002944D00C1F2368002B00DAE4182800FF
:102DB80000F071FC1E4A13681100002B02D16360F9
:102DC800146031E0A3420DD92268A018834203D1D0
:102DD80018685B688218226063600C6024E0A24275
:102DE80003D813005A68002AF9D11E689819A0421E
:102DF8000BD12168711858181960824214D11068D3
:102E08005268411819605A600EE0A04202D90C239A
:102E18002B6009E021686018824203D1106852686B
:102E28004118216062605C60280000F035FC70BDCC
:102E3800C4040020032370B5CD1C9D43083506004B
:102E48000C2D01D20C2501E0002D01DBA94202D98D
:102E58000C23336048E0300000F01DFC234B1C6855
:102E68001A002100002913D00B685B1B0DD40B2B13
:102E780002D90B60CC181EE08C4202D16368136043
:102E88001AE04B6863600C0016E00C004968E9E73B
:102E9800174C2368002B03D1300000F035FB20606D
:102EA8002900300000F030FB431C18D00323C41C59
:102EB8009C43A0420DD12560300000F0EDFB2000BE
:102EC80007220B30231D9043C31A0ED05A42E250FA
:102ED8000BE0211A300000F017FB431CEBD10C2348
:102EE8003000336000F0D8FB002070BDC40400201F
:102EF800C0040020936810B5013B9360002B05DAED
:102F08009469A34208DBCBB20A2B05D01368581C7E
:102F180010601970C8B201E0FFF788FC10BDF8B561
:102F280006000F001400D518AC4208D021783A00EA
:102F38003000FFF7DFFF0134431CF5D100E000202B
:102F4800F8BD0000F0B59FB006000F00029205938F
:102F5800002804D08369002B01D1FFF727FE7F4B9F
:102F68009F4201D1776808E07D4B9F4201D1B76845
:102F780003E07C4B9F4200D1F768BB891B070AD549
:102F88003B69002B07D0002306AD6B6120336B76BD
:102F98001033AB763DE039003000FFF79DFC002888
:102FA800F1D001204042D6E0059A111D1268059122
:102FB800002A00DA7FE00992013423782E2B00D111
:102FC8008DE021780322684800F05AFB002807D0DA
:102FD800654B2A68C01A4023834013432B60013491
:102FE8002178631C062261480293297600F048FB89
:102FF800002800D19DE05E4B002B00D090E0072216
:10300800059B07339343083305936B69039A9B1811
:103018006B61029C2378002B04D1029BE31A049372
:1030280012D003E0252BF8D00134F3E7049B029A71
:1030380039003000FFF773FF431C00D186E06A694E
:10304800049B944663446B612378002B7ED0012255
:10305800002352426A6002A95432521801342B608C
:10306800EB60AB601370AB6521780522414800F036
:1030780007FB002808D03F4B2A68C01A0123834069
:1030880013432B600134EFE72B68DA0604D553228B
:10309800202102A8121811701A0704D553222B21D7
:1030A80002A81218117022782A2A00D17CE7099BFD
:1030B80000200A2105E05242EA60022213432B60F5
:1030C8007AE72278303A092A04D84B4301349B180E
:1030D8000120F6E7002800D16FE709936DE76378D0
:1030E8002A2B0AD1059B02341A1D1B680592002B56
:1030F80001DA01235B42079363E700230A201A00E1
:1031080001346B6021783039092904D842430134ED
:1031180052180123F6E7002B00D152E7079250E737
:1031280005AB00933A00144B2900300000E000BFC3
:1031380007E005AB00933A000F4B2900300000F080
:103148008BF80390039B013300D05EE7BB895B06D5
:1031580000D526E70B981FB0F0BDC0460046000812
:103168002046000840460008664600086A460008EF
:103178000000000060460008272F0008F7B5170078
:1031880001938A680B6900900C00934200DA1300DF
:1031980022003B6043321278002A01D001333B60A1
:1031A80023689B0602D53B6802333B6006252368EB
:1031B8001D401ED0230043331B785A1E93412268BA
:1031C80092061CD53020E1184331087021005A1CA2
:1031D80045310978A2184332023311700FE02200FA
:1031E8000123193201990098089EB047431C0ED05C
:1031F8000135E3683A689B1A9D42F0DBDAE7220062
:10320800019943320098089DA847431C02D1012028
:10321800404220E006232068E1683A680340002520
:10322800042B03D18D1AEB43DB171D40A3682269D9
:10323800934201DD9B1AED180027BD420AD02200F7
:1032480001231A3201990098089EB047431CDED02A
:103258000137F2E70020FEBDF0B58BB006920A00F8
:1032680043320793059004920A7E0C00109B6E2A45
:1032780000D1ABE011D8632A22D009D8002A00D1A6
:10328800B5E0582A00D0C5E045310A70814A4FE0C0
:10329800642A1DD0692A1BD0BCE0732A00D1AAE099
:1032A80009D86F2A29D0702A00D0B3E020220968F3
:1032B8000A43226037E0752A1FD0782A33D0A9E064
:1032C8000E001A684236111D196013683370A4E0A5
:1032D80021681A68080606D4490604D5111D196024
:1032E8000023D55E02E0111D19601568002D3BDA38
:1032F8002D23049A6D42137036E021681A68080677
:1033080006D4490604D51568111D1960ADB202E04E
:10331800111D196015685F4B227E039308276F2AD9
:103328001DD00A271BE022007821453211705A4A25
:1033380019680392081D226818600D68100602D4E7
:10334800500600D5ADB2D30702D520231A43226018
:103358001027002D03D1202322689A4322602300DE
:10336800002243331A7002E00A274A4B039363682A
:10337800A360002B09DB0422216891432160002D02
:1033880005D1049E002B11D07BE0002D79D0049E3E
:1033980028003900FCF742FF039B013E5B5C2800D4
:1033A80033703900FCF7B4FE051EF1D1082F09D19E
:1033B8002368DB0706D563682269934202DC302361
:1033C800013E3370049B9B1B23612BE009681A683C
:1033D800080607D4490605D5111D19601368A28A85
:1033E8001A8004E0111D1960136862691A600023CD
:1033F800049E236116E01A68111D196016680021E1
:103408006268300000F03CF9002801D0801B606041
:10341800636803E0260042363270012323610023EB
:10342800049A1370079B09AA00932100069B05982C
:10343800FFF7A4FE431C02D10120404227E0236984
:10344800320006990598079DA847431CF4D02368C5
:1034580000259B070FD4099BE068984217DA1800EB
:1034680015E022000123193206990598079EB047F6
:10347800431CE1D00135E368099A9B1A9D42F0DBB1
:10348800E9E72600039B42361B7833708EE70BB0C2
:10349800F0BDC046714600088246000870B50600B7
:1034A8000D001400002804D08369002B01D1FFF718
:1034B8007DFB124B9C4201D1746808E0104B9C4282
:1034C80001D1B46803E00F4B9C4200D1F468A368B3
:1034D800013BA360002B05DAA269934208DBEBB23B
:1034E8000A2B05D02368E8B25A1C22601D7004E03C
:1034F800220029003000FFF799F970BD0046000846
:103508002046000840460008002370B5064C050018
:103518000800236000F0FEF8431C03D12368002B49
:1035280000D02B6070BDC046B805002070B50C00F7
:103538000E25495F00F0B2F8002803DB636D1B1805
:10354800636503E0A289024B1340A38170BDC046A6
:10355800FFEFFFFFF8B51F008B8905000C00160070
:10356800DB0505D50E23C95E0022022300F074F89E
:10357800A289054B28001340A38132000E23E15E87
:103588003B0000F01FF8F8BDFFEFFFFF70B50C001F
:103598000E25495F00F060F8A389421C03D1054A53
:1035A8001340A38104E0802252011343A381606584
:1035B80070BDC046FFEFFFFF10B50E23C95E00F0D7
:1035C80015F810BD70B50500080011000022064C62
:1035D80022601A00FDF7ACF9431C03D12368002BC5
:1035E80000D02B6070BDC046B8050020002370B520
:1035F800064C05000800236000F064F8431C03D162
:103608002368002B00D02B6070BDC046B805002091
:10361800002370B5064C050008001100236000F077
:1036280059F8431C03D12368002B00D02B6070BDD0
:10363800B8050020002370B5064C0500080023607B
:1036480000F050F8431C03D12368002B00D02B60F6
:1036580070BDC046B805002070B50500080011000F
:103668000022064C22601A0000F044F8431C03D1E3
:103678002368002B00D02B6070BDC046B805002021
:10368800C9B28218904204D003788B4202D001302C
:10369800F8E70020704770477047000070B50500D4
:1036A800080011000022064C22601A0000F02AF8D7
:1036B800431C03D12368002B00D02B6070BDC0468B
:1036C800B805002058220120014B40421A6070477B
:1036D800B805002058220120014B40421A6070476B
:1036E800B80500205822024B00201A607047C046D7
:1036F800B805002058220120014B40421A6070474B
:10370800B805002058220120014B40421A6070473A
:10371800B8050020044A1368002B03D0181810605D
:1037280018007047014BF9E7C8040020C0050020C5
:10373800F8B5C046F8BC08BC9E467047F8B5C04608
:08374800F8BC08BC9E46704766
:103750000000000000000000000000000000000069
:103760000000000000000000000000000000000059
:10377000000000000000000C000C000C000C000C0D
:10378000000C000C000C000C000C000C0000000CE5
:10379000000C0000000000000000001B001B001BCC
:1037A000001B001B000000000000000000000000E3
:1037B0000000000000000000000000000000801970
:1037C000801980198019C07FC07F80190033C07FA5
:1037D000C07F0033003300330033000000000000DE
:1037E0000000001E003F807580650074003C001ED4
:1037F00000078005806580658075003F001E00041D
:10380000000400000000007000D840D8C0D880D963
:1038100000730006000C801BC036C066C046C006A0
:1038200080030000000000000000001E003F003385
:1038300000330033001E000CC03CC0668063806112
:103840008063C03E801C0000000000000000000CEF
:10385000000C000C000C000C000000000000000038
:103860000000000000000000000000000000000058
:10387000800000010003000600060004000C000C9C
:10388000000C000C000C000C0004000600060003F5
:1038900000018000002000100018000C000C000443
:1038A0000006000600060006000600060004000CE4
:1038B000000C0018001000200000000C002D003F3C
:1038C000001E0033000000000000000000000000A7
:1038D00000000000000000000000000000000000E8
:1038E0000000000C000C000C000CC0FFC0FF000C1E
:1038F000000C000C000C00000000000000000000A4
:1039000000000000000000000000000000000000B7
:1039100000000000000000000000000C000C00048B
:10392000000400080000000000000000000000008B
:10393000000000000000001E001E0000000000004B
:103940000000000000000000000000000000000077
:103950000000000000000000000000000000000067
:103960000000000C000C000000000000000000033C
:10397000000300030006000600060006000C000C11
:10398000000C000C001800180018000000000000D7
:103990000000001E003F0033806180618061806D07
:1039A000806D8061806180610033003F001E0000F7
:1039B0000000000000000006000E001E0036002679
:1039C00000060006000600060006000600060006C7
:1039D00000060000000000000000001E003F807391
:1039E00080618061800100030006000C0018003037
:1039F0000060807F807F0000000000000000001C4D
:103A0000003E006300630003000E000E000380010F
:103A1000800180618073003F001E000000000000F4
:103A200000000006000E000E001E001E00160036EC
:103A300000360066807F807F0006000600060000DA
:103A4000000000000000007F007F00600060006058
:103A5000006E007F80638001800180618073003F81
:103A6000001E0000000000000000001E003F803328
:103A700080610060006E007F807380618061806182
:103A80008033003F001E0000000000000000807F27
:103A9000807F80010003000300060006000C000C7C
:103AA000000C0008001800180018000000000000BA
:103AB0000000001E003F8063806180610021001EC5
:103AC000003F8061806180618061003F001E0000D6
:103AD000000000000000001E003F00738061806154
:103AE00080618073803F801D800180610073003F92
:103AF000001E0000000000000000000000000000A8
:103B00000000000C000C000000000000000000009D
:103B10000000000C000C000000000000000000008D
:103B20000000000000000000000C000C000000007D
:103B3000000000000000000C000C0004000400085D
:103B4000000000000000000080008003000E00382C
:103B500000600038000E80038000000000000000BC
:103B60000000000000000000000000000000807F56
:103B7000807F00000000807F807F00000000000048
:103B80000000000000000000000000000000000035
:103B900000400070001C000780010007001C00703E
:103BA0000040000000000000000000000000001FB6
:103BB000803FC071C060C000C00180030007000EDC
:103BC000000C000C0000000C000C000000000000C5
:103BD0000000001E003F803180718063806F806D27
:103BE000806D806F806700600032003E001C000026
:103BF000000000000000000E000E001B001B001B58
:103C0000001B80318031803F803F8031C060C060C8
:103C1000C0600000000000000000007C007E006327
:103C2000006300630063007E007E0063806180614A
:103C30008063007F007E0000000000000000001E86
:103C4000003F8031806100600060006000600060C3
:103C5000006080618031003F001E00000000000015
:103C60000000007C007F0063806380618061806170
:103C700080618061806100630063007E007C0000E1
:103C8000000000000000807F807F00600060006016
:103C90000060007F007F0060006000600060807F47
:103CA000807F0000000000000000807F807F0060B7
:103CB000006000600060007F007F006000600060C6
:103CC0000060006000600000000000000000001EB6
:103CD000003F80318061006000600060806380632D
:103CE000806180618031803F001E00000000000084
:103CF0000000806180618061806180618061807F7F
:103D0000807F80618061806180618061806100006E
:103D1000000000000000003F003F000C000C000C01
:103D2000000C000C000C000C000C000C000C003F00
:103D3000003F0000000000000000800180018001C1
:103D400080018001800180018001800180618061AB
:103D50008073003F001E0000000000000000C060F3
:103D60008061006300660066006C0078007C00667D
:103D70000066006380618061C06000000000000098
:103D80000000006000600060006000600060006093
:103D900000600060006000600060807F807F000045
:103DA000000000000000C071C071C07BC07AC06A12
:103DB000C06AC06EC064C060C060C060C060C060E7
:103DC000C0600000000000000000807180718079F8
:103DD00080798079806D806D806D80658067806777
:103DE0008067806380630000000000000000001E08
:103DF000003F00338061806180618061806180610B
:103E0000806180610033003F001E00000000000060
:103E10000000007E007F806380618061806180633C
:103E2000007F007E006000600060006000600000B5
:103E3000000000000000001E003F00338061806130
:103E40008061806180618061806580670033803F30
:103E5000401E0000000000000000007E007F806324
:103E6000806180618063007F007E00660063006384
:103E700080618061C0600000000000000000000E52
:103E8000001F8031803100300038001E00078003A1
:103E9000806180618031003F001E00000000000052
:103EA0000000C0FFC0FF000C000C000C000C000C58
:103EB000000C000C000C000C000C000C000C0000AE
:103EC000000000000000806180618061806180618D
:103ED0008061806180618061806180618073003F6A
:103EE000001E0000000000000000C060C060C06054
:103EF000803180318031001B001B001B001B000E35
:103F0000000E000E00040000000000000000C0C011
:103F1000C0C0C0C0C0C0C0C0C0CC804C804C805E9F
:103F20008052805280738061806100000000000038
:103F30000000C0C0806080610033003B001E000CA8
:103F4000000C001E001F003B80718061C0C000009B
:103F5000000000000000C0C08061806100330033B9
:103F6000001E001E000C000C000C000C000C000CCD
:103F7000000C0000000000000000803F803F800136
:103F8000000300030006000C000C001800180030AD
:103F90000060807F807F000000000000000F000FA5
:103FA000000C000C000C000C000C000C000C000CB1
:103FB000000C000C000C000C000C000C000F000F9B
:103FC0000000001800180018000C000C000C000C79
:103FD00000060006000600060003000300030000C0
:103FE00000000000001E001E00060006000600067D
:103FF0000006000600060006000600060006000691
:1040000000060006001E001E0000000C000C001E32
:104010000012003300338061806100000000000066
:104020000000000000000000000000000000000090
:104030000000000000000000000000000000000080
:10404000000000000000000000000000E0FF000091
:10405000000000380018000C000000000000000004
:104060000000000000000000000000000000000050
:104070000000000000000000000000000000001F21
:10408000803F80618001801F803F80618063807FEE
:10409000C038000000000000000000600060006008
:1040A0000060006E007F807380618061806180614C
:1040B0008073007F006E0000000000000000000020
:1040C000000000000000001E003F8073806100605F
:1040D000006080618073003F001E0000000000004F
:1040E00000008001800180018001801D803F80737D
:1040F00080618061806180618073803F801D0000ED
:104100000000000000000000000000000000001E91
:10411000003F00738061807F807F00608071003F7E
:10412000001E0000000000000000C007C00F000CCF
:10413000000C807F807F000C000C000C000C000C39
:10414000000C000C000C000000000000000000004B
:1041500000000000801D803F80738061806180616D
:1041600080618073803F801D80018063007F003EFE
:1041700000000060006000600060006F807F807160
:104180008061806180618061806180618061000008
:104190000000000000000006000600000000003ED5
:1041A000003E0006000600060006000600060006A7
:1041B00000060000000000000006000600000000ED
:1041C000003E003E0006000600060006000600064F
:1041D0000006000600060046007E003C000000606D
:1041E000006000600060806100630066006C007C1D
:1041F0000076006300638061C06000000000000082
:104200000000003E003E0006000600060006000614
:104210000006000600060006000600060006000074
:10422000000000000000000000000000000080DD31
:10423000C0FFC0CEC0CCC0CCC0CCC0CCC0CCC0CCE9
:10424000C0CC0000000000000000000000000000E2
:104250000000006F807F807180618061806180617B
:1042600080618061806100000000000000000000AB
:10427000000000000000001E003F8073806180612C
:10428000806180618073003F001E0000000000001C
:104290000000000000000000006E007F807380615D
:1042A0008061806180618073007F006E00600060CB
:1042B000006000600000000000000000801D803FE2
:1042C000807380618061806180618073803F801D28
:1042D00080018001800180010000000000000000DA
:1042E00000000067803F00390030003000300030AF
:1042F000003000300030000000000000000000002E
:10430000000000000000001E803F80610060007F10
:10431000803F80018061007F001E000000000000DF
:1043200000000000000800180018007F007F00183F
:1043300000180018001800180018801F800F0000D7
:10434000000000000000000000000000000080618C
:104350008061806180618061806180618063807F35
:10436000803D000000000000000000000000000090
:104370000000C060803180318031001B001B001BB9
:10438000000E000E0006000000000000000000000B
:1043900000000000000080DD80DD80DD005500555C
:1043A0000055007700770022002200000000000086
:1043B00000000000000000000000806100330033B6
:1043C000001E000C000C001E003300338061000052
:1043D000000000000000000000000000806180611B
:1043E000803100330033001B001B001B000E000E49
:1043F000000E001C007C00700000000000000000A7
:104400000000C07FC07F800100030006000C001880
:104410000030C07FC07F00000000000080038007E4
:1044200000060006000600060006000E001C001C28
:10443000000E000600060006000600068007800346
:10444000000600060006000600060006000600063C
:10445000000600060006000600060006000600062C
:10446000000600060038003C000C000C000C000C9C
:10447000000C000E00070007000E000C000C000CE2
:10448000000C000C003C00380000000000000000A0
:104490000000000000008038807F0047000000001E
:1044A0000000000000000000000000006F70744277
:1044B000697473203D20307825303278200D0A0051
:1044C0006E424F4F545F53454C203D20300D00004D
:1044D000557064617465206E424F4F545F53454C74
:1044E00020746F20300D00005265626F6F74210DD3
:1044F0000A0D00000D0A5363616E6E696E672049F4
:104500003243206275733A0D000000000D0A3078C6
:10451000253032580D0A00000D0000005461736B05
:1045200020312072756E6E696E67210D00000000EB
:10453000323032322E31322E3033000056312E30AE
:10454000000000005665723A2025732D25730D0A70
:10455000000000007373643133303620696E697473
:10456000206661696C210D00496E697420446F6E8C
:10457000650D0000010002000400060008000A00AA
:104580000C00100020004000800000010101010328
:1045900007010000080402040801010100000000F6
:1045A000000000000000000000000000000000000B
:1045B00000000000000000000000000001000000FA
:1045C00002000000030000000400000006000000DC
:1045D00007000000080000000900000000000000C3
:1045E00000000000000000000000000001000000CA
:1045F000020000000300000004000000380000205A
:1046000000000000000000000000000000000000AA
:10461000000000000000000000000000000000009A
:10462000000000000000000000000000000000008A
:10463000000000000000000000000000000000007A
:10464000000000000000000000000000000000006A
:10465000000000000000000000000000000000005A
:10466000232D302B2000686C4C006566674546475B
:1046700000303132333435363738394142434445DE
:10468000460030313233343536373839616263644D
:04469000656600005B
:04469400E100000839
:04469800B90000085D
:10469C000B12000050370008202020202020202062
:1046AC00202000002020202020202020202000007E
:1046BC0048692053544D3332202000000400000080
:1046CC00010000000024F400000000000046000877
:1046DC0020460008404600080000000000000000D2
:1046EC0000000000000000000000000000000000BE
:1046FC0000000000000000000000000000000000AE
:10470C00000000000000000000000000000000009D
:10471C00000000000000000000000000000000008D
:0C472C0000000000000000003800002029
:040000050800265178
:00000001FF
